:1000000055C000005BC0000059C0000057C0000090
:1000100055C0000053C0000051C000004FC0000098
:100020004DC000004BC0000049C0000047C00000A8
:1000300045C0000043C0000041C000003FC00000B8
:100040003DC000003BC0000039C0000037C00000C8
:1000500035C0000033C0000031C000002FC00000D8
:100060002DC000002BC0000029C0000027C00000E8
:1000700025C0000023C0000021C000001FC00000F8
:100080001DC000001BC0000019C0000017C0000008
:1000900015C0000013C0000011C000000FC0000018
:1000A0000DC000000BC0000009C0000011241FBEDD
:1000B000CFEFD5E0DEBFCDBF03D02DC0A1CF0895D7
:1000C000CF93DF93CDB7DEB7C054D1090FB6F89404
:1000D000DEBF0FBECDBFF3DF80E887B98FEF8AB9EF
:1000E00018B8FE0131969E012F5B3F4F90E898B9FA
:1000F00081918BB9A3E2B4EF1197F1F700C0000032
:1001000018B8A3E2B4EF1197F1F700C00000E217AE
:0A011000F30769F7FFCFF894FFCF63
:00000001FF
